{
  "contractName": "NFT",
  "abi": [
    {
      "inputs": [],
      "stateMutability": "nonpayable",
      "type": "constructor"
    },
    {
      "anonymous": false,
      "inputs": [
        {
          "indexed": false,
          "internalType": "uint256",
          "name": "id",
          "type": "uint256"
        },
        {
          "indexed": false,
          "internalType": "string",
          "name": "name",
          "type": "string"
        },
        {
          "indexed": false,
          "internalType": "uint256",
          "name": "price",
          "type": "uint256"
        },
        {
          "indexed": false,
          "internalType": "address payable",
          "name": "owner",
          "type": "address"
        },
        {
          "indexed": false,
          "internalType": "uint256",
          "name": "unq_id",
          "type": "uint256"
        },
        {
          "indexed": false,
          "internalType": "bool",
          "name": "purchased",
          "type": "bool"
        }
      ],
      "name": "NFTCreated",
      "type": "event"
    },
    {
      "inputs": [],
      "name": "NFTCount",
      "outputs": [
        {
          "internalType": "uint256",
          "name": "",
          "type": "uint256"
        }
      ],
      "stateMutability": "view",
      "type": "function",
      "constant": true
    },
    {
      "inputs": [
        {
          "internalType": "uint256",
          "name": "",
          "type": "uint256"
        }
      ],
      "name": "NFTs",
      "outputs": [
        {
          "internalType": "uint256",
          "name": "p_id",
          "type": "uint256"
        },
        {
          "internalType": "string",
          "name": "name",
          "type": "string"
        },
        {
          "internalType": "uint256",
          "name": "price",
          "type": "uint256"
        },
        {
          "internalType": "address payable",
          "name": "owner",
          "type": "address"
        },
        {
          "internalType": "uint256",
          "name": "unq_id",
          "type": "uint256"
        },
        {
          "internalType": "bool",
          "name": "purchased",
          "type": "bool"
        }
      ],
      "stateMutability": "view",
      "type": "function",
      "constant": true
    },
    {
      "inputs": [],
      "name": "name",
      "outputs": [
        {
          "internalType": "string",
          "name": "",
          "type": "string"
        }
      ],
      "stateMutability": "view",
      "type": "function",
      "constant": true
    },
    {
      "inputs": [
        {
          "internalType": "string",
          "name": "nft_name",
          "type": "string"
        },
        {
          "internalType": "uint256",
          "name": "nft_price",
          "type": "uint256"
        }
      ],
      "name": "createNFT",
      "outputs": [],
      "stateMutability": "nonpayable",
      "type": "function"
    }
  ],
  "bytecode": "0x6080604052600060015534801561001557600080fd5b506040518060400160405280601281526020017f4e465420536d61727420436f6e7472616374000000000000000000000000000081525060009080519060200190610061929190610067565b5061016b565b82805461007390610139565b90600052602060002090601f01602090048101928261009557600085556100dc565b82601f106100ae57805160ff19168380011785556100dc565b828001600101855582156100dc579182015b828111156100db5782518255916020019190600101906100c0565b5b5090506100e991906100ed565b5090565b5b808211156101065760008160009055506001016100ee565b5090565b7f4e487b7100000000000000000000000000000000000000000000000000000000600052602260045260246000fd5b6000600282049050600182168061015157607f821691505b602082108114156101655761016461010a565b5b50919050565b6109358061017a6000396000f3fe608060405234801561001057600080fd5b506004361061004c5760003560e01c806306fdde0314610051578063268291551461006f578063a3c0b95b1461008b578063cb7728ea146100c0575b600080fd5b6100596100de565b604051610066919061050e565b60405180910390f35b610089600480360381019061008491906106af565b61016c565b005b6100a560048036038101906100a0919061070b565b6102db565b6040516100b7969594939291906107a3565b60405180910390f35b6100c86103cc565b6040516100d5919061080b565b60405180910390f35b600080546100eb90610855565b80601f016020809104026020016040519081016040528092919081815260200182805461011790610855565b80156101645780601f1061013957610100808354040283529160200191610164565b820191906000526020600020905b81548152906001019060200180831161014757829003601f168201915b505050505081565b6000811161017957600080fd5b6001600081548092919061018c906108b6565b91905055506040518060c0016040528060015481526020018381526020018281526020013373ffffffffffffffffffffffffffffffffffffffff168152602001428152602001600015158152506002600060015481526020019081526020016000206000820151816000015560208201518160010190805190602001906102149291906103d2565b506040820151816002015560608201518160030160006101000a81548173ffffffffffffffffffffffffffffffffffffffff021916908373ffffffffffffffffffffffffffffffffffffffff1602179055506080820151816004015560a08201518160050160006101000a81548160ff0219169083151502179055509050507f80c40d2601a83bb6551403b923996254b7fbaa32b21386961fad6fad67e68c8e6001548383334260006040516102cf969594939291906107a3565b60405180910390a15050565b600260205280600052604060002060009150905080600001549080600101805461030490610855565b80601f016020809104026020016040519081016040528092919081815260200182805461033090610855565b801561037d5780601f106103525761010080835404028352916020019161037d565b820191906000526020600020905b81548152906001019060200180831161036057829003601f168201915b5050505050908060020154908060030160009054906101000a900473ffffffffffffffffffffffffffffffffffffffff16908060040154908060050160009054906101000a900460ff16905086565b60015481565b8280546103de90610855565b90600052602060002090601f0160209004810192826104005760008555610447565b82601f1061041957805160ff1916838001178555610447565b82800160010185558215610447579182015b8281111561044657825182559160200191906001019061042b565b5b5090506104549190610458565b5090565b5b80821115610471576000816000905550600101610459565b5090565b600081519050919050565b600082825260208201905092915050565b60005b838110156104af578082015181840152602081019050610494565b838111156104be576000848401525b50505050565b6000601f19601f8301169050919050565b60006104e082610475565b6104ea8185610480565b93506104fa818560208601610491565b610503816104c4565b840191505092915050565b6000602082019050818103600083015261052881846104d5565b905092915050565b6000604051905090565b600080fd5b600080fd5b600080fd5b600080fd5b7f4e487b7100000000000000000000000000000000000000000000000000000000600052604160045260246000fd5b610586826104c4565b810181811067ffffffffffffffff821117156105a5576105a461054e565b5b80604052505050565b60006105b8610530565b90506105c4828261057d565b919050565b600067ffffffffffffffff8211156105e4576105e361054e565b5b6105ed826104c4565b9050602081019050919050565b82818337600083830152505050565b600061061c610617846105c9565b6105ae565b90508281526020810184848401111561063857610637610549565b5b6106438482856105fa565b509392505050565b600082601f8301126106605761065f610544565b5b8135610670848260208601610609565b91505092915050565b6000819050919050565b61068c81610679565b811461069757600080fd5b50565b6000813590506106a981610683565b92915050565b600080604083850312156106c6576106c561053a565b5b600083013567ffffffffffffffff8111156106e4576106e361053f565b5b6106f08582860161064b565b92505060206107018582860161069a565b9150509250929050565b6000602082840312156107215761072061053a565b5b600061072f8482850161069a565b91505092915050565b61074181610679565b82525050565b600073ffffffffffffffffffffffffffffffffffffffff82169050919050565b600061077282610747565b9050919050565b61078281610767565b82525050565b60008115159050919050565b61079d81610788565b82525050565b600060c0820190506107b86000830189610738565b81810360208301526107ca81886104d5565b90506107d96040830187610738565b6107e66060830186610779565b6107f36080830185610738565b61080060a0830184610794565b979650505050505050565b60006020820190506108206000830184610738565b92915050565b7f4e487b7100000000000000000000000000000000000000000000000000000000600052602260045260246000fd5b6000600282049050600182168061086d57607f821691505b6020821081141561088157610880610826565b5b50919050565b7f4e487b7100000000000000000000000000000000000000000000000000000000600052601160045260246000fd5b60006108c182610679565b91507fffffffffffffffffffffffffffffffffffffffffffffffffffffffffffffffff8214156108f4576108f3610887565b5b60018201905091905056fea2646970667358221220cd6a6d2ceab91d691bbf8a511317400665f886e45eb050dc705befcd659aafe864736f6c634300080b0033",
  "immutableReferences": {},
  "source": "// SPDX-License-Identifier: MIT\npragma solidity ^0.8.7;\n\ncontract NFT{\n    string public name;\n\n    struct NFTOnSale{\n        uint p_id;\n        string name;\n        uint price;\n        address payable owner;\n        uint unq_id;\n        bool purchased;\n    }\n\n    event NFTCreated(\n        uint id, string name, uint price, address payable owner, uint unq_id, bool purchased\n    );\n\n    uint public NFTCount = 0;\n    mapping(uint=>NFTOnSale) public NFTs;\n\n    function createNFT(string memory nft_name, uint nft_price) public{\n        require(nft_price>0);\n        NFTCount++;\n        NFTs[NFTCount] = NFTOnSale(NFTCount, nft_name, nft_price, payable(msg.sender), block.timestamp,  false);\n        emit NFTCreated(NFTCount, nft_name, nft_price, payable(msg.sender), block.timestamp, false);\n    }\n\n    constructor() public{\n        name = \"NFT Smart Contract\";\n    }\n}",
  "sourcePath": "/home/coded/blockchain/blockchain-project/contracts/NFT_Contract.sol",
  "compiler": {
    "name": "solc",
    "version": "0.8.11+commit.d7f03943.Emscripten.clang"
  },
  "schemaVersion": "3.4.4",
  "updatedAt": "2022-03-01T14:24:27.061Z",
  "networkType": "ethereum",
  "devdoc": {
    "kind": "dev",
    "methods": {},
    "version": 1
  },
  "userdoc": {
    "kind": "user",
    "methods": {},
    "version": 1
  }
}